:0A0000000C9445000C9400000C94D1
:10000A0000000C9400000C9400000C9400000C9466
:10001A0000000C9400000C9400000C9400000C9456
:10002A0000000C9400000C9400000C9400000C9446
:10003A0000000C9400000C9474000C9400000C94C2
:10004A0000000C9400000C9400000C9400000C9426
:10005A0000000C9400000C9400000C9400007469D9
:10006A006D65720080C001002D4E414E00494E461A
:10007A000000020006036E0001000A03700000007F
:10008A00F894EE27EFBBF1E0F5BFE5BF8DE0A2E003
:10009A00BB27ED938A95E9F780E098E0A0E0B1E00C
:1000AA00ED930197E9F7ECE7F0E0859195910097D8
:1000BA0061F0A591B59105901590BF01F0010590E9
:1000CA000D920197E1F7FB01F0CFE0E0EEBBEFEF15
:1000DA00EDBFE8E0EEBFC0E0D3E00C948100EA9304
:1000EA00FA93EFB7EA93E1E0F0E03E0E4F1EE99192
:1000FA00EFBFF991E9911895E0E1EBB9EAB9E0E0CF
:10010A00E4BDE7E0E5BDEDEFE6BDE0E0E7BDE1E037
:10011A00E0936E007894A0E19ED0E0E0F1E03E1614
:10012A004F060CF055D0E0E0EA93A0E044D0A8E6F0
:10013A00B0E07ED04A923A92A0E0B3E00E945F011A
:10014A00E0E0EA93A1E037D0A0E0B3E062D0E5CFE7
:10015A00FFCFAA93E881E07111F02C9A01C02C9884
:10016A00E881E07211F02D9A01C02D98E881E074BF
:10017A0011F0409A01C04098E881E07811F0419A64
:10018A0001C041988BE18A95F1F72A9A8BE18A9509
:10019A00F1F72A988BE18A95F1F78AC0AA93A88188
:1001AA00D8DFE881E295E883A881D3DF88EC90E084
:1001BA000197F1F77DC0AA93E881F0E0EA5FFC4F6E
:1001CA00E081A981AE0FEADF6980588022960895FE
:1001DA00A2E00E948D01ACE0E1DFA1E00E948D0166
:1001EA00E0E05E2E6E2E0895AA93A881AA3011F03F
:1001FA00681448F0E0E0EA935394A52DDCDFA88167
:10020A00AA3009F455C06394289AA881C7DF2898B0
:10021A004FC0BA93AA931A93A981BA81ED91A9837F
:10022A00BA831E2FE03019F0A12FDEDFF5CF10C000
:10023A00BA93AA931A93E981FA813196E983FA83E8
:10024A003197E4911E2FE03019F0A12FCDDFF3CFC3
:10025A00188123960895AA93249A259A389A399A46
:10026A00229A209A219A2A98289829988880E8819F
:10027A00E058E0930803E881E054E0930903A4E11D
:10028A00B0E00E949B010E9493010E9493010E9488
:10029A009301A0E25EDF80E991E00197F1F7A8E21D
:1002AA007DDFA4E07BDFA5E879DFA6E077DF90DFDA
:1002BA0021960895BA93AA93A991B991E991F991CE
:1002CA0030962AF4E095F09531966DE26D93E894B4
:1002DA0080E197E20DD088EE93E00AD084E6992770
:1002EA0007D08AE005D06E2F10D066276C93089548
:1002FA006627E817F90720F06395E81BF90BC9F799
:10030A00662311F416F008956894605D6D9308955C
:10031A000E94D300A3E0B0E00C949B01A0E30E94EA
:10032A00AE0080E991E00197F1F70895109639F04F
:10033A0080EA9FE00197F1F7A8951197C9F7089508
:00000001FF
