:060000000C944A000C9470
:1000060000000C9400000C9400000C9400000C946A
:1000160000000C9400000C9400000C9400000C945A
:1000260000000C9400000C9400000C9400000C944A
:1000360000000C9400000C9400000C9479000C94C1
:1000460000000C9400000C9400000C9400000C942A
:1000560000000C9400000C9400000C9400000C941A
:1000660000000000436F756E7465720080C0010069
:100076002D4E414E00494E46000001000400680026
:1000860002000603720001000A0374000000F894DF
:10009600EE27EFBBF1E0F5BFE5BF8DE0A2E0BB27A1
:1000A600ED938A95E9F780E098E0A0E0B1E0ED9362
:1000B6000197E9F7E0E8F0E085919591009761F006
:1000C600A591B59105901590BF01F00105900D928F
:1000D6000197E1F7FB01F0CFE0E0EEBBEFEFEDBFFC
:1000E600E8E0EEBFC0E0D3E00C948800EA93FA9310
:1000F600EFB7EA93EEEFE6BDE1E0F0E07E0E8F1E8D
:10010600E991EFBFF991E9911895EFEFE4B9E5B9F7
:10011600E0E0E4BDE7E0E5BDEEEFE6BDE0E0E7BD2B
:10012600E1E0E0936E007894A0E18ED0E4E6F0E0A2
:100136007E168F0614F0E4EEF0E0E0E0EA93A0E02D
:1001460033D0AAE6B0E06DD08A927A92A0E0B3E00E
:100156000E945501E0E0EA93A1E026D0A0E0B3E0DA
:1001660051D0E4CFFFCFAA93E5B1EF70AE2FE8816F
:10017600E07FEA2BE5B98BE18A95F1F72A9A8BE1C4
:100186008A95F1F72A988BE18A95F1F789C0AA93A7
:10019600A881E9DFE881E295E883A881E4DF88ECBD
:1001A60090E00197F1F77CC0AA93E881F0E0EA5F5E
:1001B600FC4FE081A981AE0FEADF3980A880229644
:1001C6000895A2E00E948301ACE0E1DFA1E00E9475
:1001D6008301E0E0AE2E3E2E0895AA93A881AA30B0
:1001E60011F0391448F0E0E0EA93A394AA2DDCDF7D
:1001F600A881AA3009F454C03394289AA881C7DF8D
:1002060028984EC0BA93AA931A93A981BA81ED9100
:10021600A983BA831E2FE03019F0A12FDEDFF5CFB8
:1002260010C0BA93AA931A93E981FA813196E983A9
:10023600FA833197E4911E2FE03019F0A12FCDDF1C
:10024600F3CF188123960895AA93E4B1E06FE4B939
:10025600229A209A219A2A98289829989880E881A3
:10026600E058E0930803E881E054E0930903A4E131
:10027600B0E00E9491010E9489010E9489010E94BA
:100286008901A0E270DF80E991E00197F1F7A8E229
:100296007EDFA4E07CDFA5E87ADFA6E078DF91DFE9
:1002A60021960895BA93AA93A991B991E991F991E2
:1002B60030962AF4E095F09531966DE26D93E894C8
:1002C60080E197E20DD088EE93E00AD084E6992784
:1002D60007D08AE005D06E2F10D066276C9308955C
:1002E6006627E817F90720F06395E81BF90BC9F7AD
:1002F600662311F416F008956894605D6D93089571
:100306000E94CA00A3E0B0E00C949101A0E30E9411
:10031600B60080E991E00197F1F70895109639F05B
:1003260080EA9FE00197F1F7A8951197C9F708951C
:00000001FF
