:020000000C945E
:100002003D000C9400000C9400000C9400000C9431
:1000120000000C9400000C9400000C9400000C945E
:1000220000000C9400000C9400000C9400000C944E
:1000320000000C9400000C9400000C9400000C943E
:1000420000000C9400000C9400000C9400000C942E
:1000520000000C9400000C9400000C9400000C941E
:1000620000000C9400001027E80364000A0001005D
:100072000010000110000100F894EE27EFBBF1E040
:10008200F5BFE5BF8DE0A2E0BB27ED938A95E9F7C6
:1000920080E098E0A0E0B1E0ED930197E9F7E0E0BD
:1000A200EEBBEFEFEDBFE8E0EEBFC0E0D3E00C94B3
:1000B200C5000E944402AC85BD858E859F85E88976
:1000C200F9896A897B890E94C1017F936F93FF93AB
:1000D200EF93AC81BD818E819F810E9435020E9487
:1000E200C101AF91BF918F919F910E94F3017F93C4
:1000F2006F93FF93EF93AC85BD858E859F85E885D1
:10010200F9856A857B850E94C101AF91BF918F916C
:100112009F910E941D02AC81BD818E819F810E94B0
:10012200BC0164960895AA931A930A93EA81E09314
:100132007C00E0917C00E064E0937C00E0917C0034
:10014200EF7DE0937C00E0917A00E760E0937A0033
:10015200E0917A00E068E0937A00E0917A00E0644E
:10016200E0937A00E0917A00E074E1F70091780080
:100172001127E0917900FE2FE0E00E0F1F1FF8011A
:1001820019810881239608952497EFEFE8B9329AEE
:10019200E0E0E7B9E5B9EFEFE4B9E0E8E0BFE0E0BD
:1001A200E0937F00E0937E00E0E4E0937C00E1E8EE
:1001B200E0937A00E0E0E0937B00ECBDE093BC00CA
:1001C200309B02C0319937C0A2E0ADDF8F010E949F
:1001D2001E01E0E0F0E060E070E00E943F02AAE071
:1001E200B0E080E090E065DF9F010E941E01E4E044
:1001F200F0E060E070E00E943F02A0E0B0E080E04A
:1002020090E057DF0E948E010E943A02309902C0AC
:10021200E1E003C031990EC0E2E0E5B9D9010E94E4
:100222003001E0E0E5B90E9435020E945501DF018C
:100232000E943001C5CFC4CFFFCFF8010E94CE018A
:100242000E943F02E0E0F0E060E070E00E943F02C6
:10025200EFEFF3E060E070E00E943F020895109635
:1002620039F088EB9BE00197F1F7A8951197C9F750
:10027200089550E8572711F45F936BC05F3F31F048
:10028200660F000C57956795752F08955F930020B0
:100292000AF06BC064C050E8072E0522660F771F74
:1002A2007527550F67950895689401C0E8945F9388
:1002B200F2DF703818F07F3F08F44BC056E1571B4D
:1002C200AAF4519558300EF4593030F0EFEFFFEFA9
:1002D2006FEF7FE777F91AC077275523B9F0EE0F52
:1002E200FF1F661F771F5A95D1F710C07727583026
:1002F20028F0EF2FF62F672F5850F9CF552331F002
:1003020076956795F795E7955A95D1F700200AF407
:100312003CD05F910895689401C0E89430976040A2
:100322007040B1F0002426F0772312F400942DD00F
:10033200172E7EE1112032F07A95EE0FFF1F661F15
:10034200111CF9CFEF2FF62F612D5F9392DF5F9192
:100352000895EE27FF27662777275F910895EFEF2D
:10036200FFEF6FE77FEF5F910895EFEFFFEF6FE72A
:100372007FE75F910895EA0FFB1F681F791F0895B9
:10038200EA1BFB0B680B790B0895F095609570954D
:10039200E195FF4F6F4F7F4F08956F2F660F660BEA
:1003A200762F08957A9F702D6B9F700DF89F700DB8
:1003B200E99F700D6A9F602D710DFB9F600D711D8D
:1003C200E89F600D711D8827FA9FF02D610D781F3F
:1003D200EB9FF00D611D781FEA9FE02DF10D681F64
:1003E200781F08952ED0DEDF0EF4CFDF08953F93FD
:1003F2004F935F93002411244427552730E2AA0F1C
:10040200BB1F881F991F001C111C441F551F0E1A69
:100412001F0A460B570B28F40E0E1F1E461F571FAE
:1004220001C0A1603A9559F7FD01BC01D001CA0192
:100432005F914F913F91089504D0D9DF0EF4A5DF6B
:100442000895E89477FF02C0A0DF689497FF0BC07D
:100452000024A095B095809590951196801D901DD1
:1004620000F8039400FA0895E881F9816A817B819A
:100472000895E883F9836A837B8308957A936A9364
:10048200FA93EA9308959A938A93BA93AA93089552
:00000001FF
