:100000000C944B000C9400000C9400000C94000025
:100010000C9400000C9400000C9400000C94000060
:100020000C9400000C9400000C9400000C94000050
:100030000C9400000C9400000C9400000C94000040
:100040000C9400000C9400000C9400000C94000030
:100050000C9400000C9400000C9400000C94000020
:100060000C9400000C940000000057616B74752024
:100070003A20000080C001002D4E414E00494E46FE
:100080000000010004006800020006037400010083
:100090000A0376000000F894EE27EFBBF1E0F5BF0D
:1000A000E5BF8DE0A2E0BB27ED938A95E9F780E0FC
:1000B00098E0A0E0B1E0ED930197E9F7E2E8F0E025
:1000C00085919591009761F0A591B5910590159056
:1000D000BF01F00105900D920197E1F7FB01F0CF10
:1000E000E0E0EEBBEFEFEDBFE8E0EEBFC0E0D3E055
:1000F0000C947A00A0E1A8D0E2E0E4BDE5E0E5BD23
:10010000E0E0E6BDE1E0E0936E00EBE9E7BDA89B2F
:100110000AC04394EAE0E41529F4E1E0F0E05E0E61
:100120006F1E4424F4CFE1E0E5BBECE3F0E0E5151D
:10013000F60519F446D055246624E0E0EA93A0E0E1
:1001400033D0AAE6B0E06DD06A925A92A0E0B3E054
:100150000E945201E0E0EA93A1E026D0A0E0B3E0E3
:1001600051D0CACFFFCFAA93EBB1EF70AE2FE88189
:10017000E07FEA2BEBB98BE18A95F1F75A9A8BE194
:100180008A95F1F75A988BE18A95F1F789C0AA937D
:10019000A881E9DFE881E295E883A881E4DF88ECC3
:1001A00090E00197F1F77CC0AA93E881F0E0EA5F64
:1001B000FC4FE081A981AE0FEADF3980888022966A
:1001C0000895A2E00E948001ACE0E1DFA1E00E947E
:1001D0008001E0E08E2E3E2E0895AA93A881AA30D9
:1001E00011F0371448F0E0E0EA938394A82DDCDFA7
:1001F000A881AA3009F454C03394589AA881C7DF63
:1002000058984EC0BA93AA931A93A981BA81ED91D6
:10021000A983BA831E2FE03019F0A12FDEDFF5CFBE
:1002200010C0BA93AA931A93E981FA813196E983AF
:10023000FA833197E4911E2FE03019F0A12FCDDF22
:10024000F3CF188123960895AA93EAB1E06FEAB933
:10025000529A509A519A5A98589859987880E881A9
:10026000E058E0930803E881E054E0930903A4E137
:10027000B0E00E948E010E9486010E9486010E94C9
:100280008601A0E270DF80E991E00197F1F7A8E232
:100290007EDFA4E07CDFA5E87ADFA6E078DF91DFEF
:1002A00021960895BA93AA93A991B991E991F991E8
:1002B00030962AF4E095F09531966DE26D93E894CE
:1002C00080E197E20DD088EE93E00AD084E699278A
:1002D00007D08AE005D06E2F10D066276C93089562
:1002E0006627E817F90720F06395E81BF90BC9F7B3
:1002F000662311F416F008956894605D6D93089577
:100300000E94C700A3E0B0E00C948E01A0E30E941D
:10031000B30080E991E00197F1F70895109639F064
:1003200080EA9FE00197F1F7A8951197C9F7089522
:00000001FF
