:040000000C94470015
:100004000C9400000C9400000C9400000C9400006C
:100014000C9400000C9400000C9400000C9400005C
:100024000C9400000C9400000C9400000C9400004C
:100034000C9476000C9400000C9400000C940000C6
:100044000C9400000C9400000C9400000C9400002C
:100054000C9400000C9400000C9400000C9400001C
:100064000C94000057616B7475203A20000080C026
:1000740001002D4E414E00494E4600000200060389
:10008400720001000A0374000000F894EE27EFBB2D
:10009400F1E0F5BFE5BF8DE0A2E0BB27ED938A95C3
:1000A400E9F780E098E0A0E0B1E0ED930197E9F78B
:1000B400E0E8F0E085919591009761F0A591B59104
:1000C40005901590BF01F00105900D920197E1F79D
:1000D400FB01F0CFE0E0EEBBEFEFEDBFE8E0EEBFF9
:1000E400C0E0D3E00C948500EA93FA93EFB7EA9367
:1000F4000E948B01E1E0F0E03E0E4F1EE991EFBF5C
:10010400F991E9911895E0E0E0938000E5E0E0934F
:1001140081000E948B01E0E0E0938700E093860079
:10012400E0938900E0938800E0938B00E0938A00D9
:10013400E1E0E0936F00A0E190D07894E4E6F0E091
:10014400E315F40519F446D033244424E0E0EA939B
:10015400A0E033D0A8E6B0E06DD04A923A92A0E095
:10016400B3E00E945D01E0E0EA93A1E026D0A0E0C4
:10017400B3E051D0E3CFFFCFAA93EBB1EF70AE2F32
:10018400E881E07FEA2BEBB98BE18A95F1F75A9A83
:100194008BE18A95F1F75A988BE18A95F1F789C03A
:1001A400AA93A881E9DFE881E295E883A881E4DFE6
:1001B40088EC90E00197F1F77CC0AA93E881F0E025
:1001C400EA5FFC4FE081A981AE0FEADF69805880C5
:1001D40022960895A2E00E949201ACE0E1DFA1E042
:1001E4000E949201E0E05E2E6E2E0895AA93A881EB
:1001F400AA3011F0681448F0E0E0EA935394A52D76
:10020400DCDFA881AA3009F454C06394589AA88109
:10021400C7DF58984EC0BA93AA931A93A981BA819A
:10022400ED91A983BA831E2FE03019F0A12FDEDFF0
:10023400F5CF10C0BA93AA931A93E981FA81319643
:10024400E983FA833197E4911E2FE03019F0A12F4E
:10025400CDDFF3CF188123960895AA93EAB1E06F16
:10026400EAB9529A509A519A5A985898599888804B
:10027400E881E058E0930803E881E054E09309033F
:10028400A4E1B0E00E94A0010E9498010E9498019C
:100294000E949801A0E270DF80E991E00197F1F7F4
:1002A400A8E27EDFA4E07CDFA5E87ADFA6E078DFC1
:1002B40091DF21960895BA93AA93A991B991E991EE
:1002C400F99130962AF4E095F09531966DE26D93AC
:1002D400E89480E197E20DD088EE93E00AD084E6BA
:1002E400992707D08AE005D06E2F10D066276C932B
:1002F40008956627E817F90720F06395E81BF90BC2
:10030400C9F7662311F416F008956894605D6D933F
:100314000895E2ECE0938500E7EFE093840008950C
:100324000E94D200A3E0B0E00C94A001A0E30E94DC
:10033400BE0080E991E00197F1F70895109639F035
:1003440080EA9FE00197F1F7A8951197C9F70895FE
:00000001FF
